:100000000C942A000C9434000C9434000C943400AA
:100010000C9434000C9434000C9434000C94340090
:100020000C9434000C9434000C9434000C94340080
:100030000C9434000C9434000C9434000C94340070
:100040000C9434000C9434000C9434000C94340060
:100050000C94340011241FBECFE5D8E0DEBFCDBF25
:100060000E9436000C9466000C9400008AB38C60E9
:100070008ABB8FEF8BBB90E080E0C89912C02FEF56
:1000800031EE44E0215030404040E1F700C0000034
:10009000811103C0DA9881E002C0DA9A80E0C89B3F
:1000A000FECFC999EACF2FEF31EE44E02150304026
:1000B0004040E1F700C00000911103C0DB9891E0DF
:1000C00002C0DB9A90E0C99BFECFD7CFF894FFCF58
:00000001FF
