:100000000C9439000C944B000C944B000C944B0056
:100010000C944B000C944B000C944B000C944B0034
:100020000C944B000C944B000C944B000C9454001B
:100030000C944B000C944B000C944B000C944B0014
:100040000C944B000C944B000C944B000C944B0004
:100050000C944B0005A84CCDB2D44EB93836A90249
:100060000C50B9918688083CA6AAAA2ABE000000B6
:10007000803F11241FBECFE5D8E0DEBFCDBF21E019
:10008000A0E6B0E001C01D92A036B207E1F70E94E1
:1000900070000C94C3020C9400008AE683BF1CBE5F
:1000A000BB9A81E089BF08951F920F920FB60F92FD
:1000B00011248F93EF93FF93E0916000F0E0EF59EC
:1000C000FF4F80818CBF809160008F5F80936000C4
:1000D000FF91EF918F910F900FBE0F901F90189589
:1000E0000E944D0001E610E0C0E0D0E0BE010D2E00
:1000F000000C880B990B0E943A0125EB39ED49EC75
:100100005CE30E94C6010E94330220E030E040E040
:1001100053E40E94C60120E030E04EEF52E40E941A
:100120009D000E940901F80161938F012196CF3F44
:10013000D105E1F67894FFCF5058BB27AA270E943B
:10014000B4000C948C010E947E0138F00E9485015D
:1001500020F039F49F3F19F426F40C947B010EF43F
:10016000E095E7FB0C947501E92F0E949D0158F37F
:10017000BA17620773078407950720F079F4A6F58C
:100180000C94BF010EF4E0950B2EBA2FA02D0B019D
:10019000B90190010C01CA01A0011124FF27591BCC
:1001A00099F0593F50F4503E68F11A16F040A22FD2
:1001B000232F342F4427585FF3CF46953795279543
:1001C000A795F0405395C9F77EF41F16BA0B620B42
:1001D000730B840BBAF09150A1F0FF0FBB1F661F89
:1001E000771F881FC2F70EC0BA0F621F731F841FCC
:1001F00048F4879577956795B795F7959E3F08F0F2
:10020000B0CF9395880F08F09927EE0F97958795B3
:1002100008950E94A50188F09F5798F0B92F99275B
:10022000B751B0F0E1F0660F771F881F991F1AF0E1
:10023000BA95C9F714C0B13091F00E94BF01B1E086
:1002400008950C94BF01672F782F8827B85F39F085
:10025000B93FCCF3869577956795B395D9F73EF47A
:1002600090958095709561957F4F8F4F9F4F089522
:10027000E89409C097FB3EF4909580957095619540
:100280007F4F8F4F9F4F9923A9F0F92F96E9BB27F6
:100290009395F695879577956795B795F111F8CF72
:1002A000FAF4BB0F11F460FF1BC06F5F7F4F8F4FDD
:1002B0009F4F16C0882311F096E911C0772321F0D3
:1002C0009EE8872F762F05C0662371F096E8862F6B
:1002D00070E060E02AF09A95660F771F881FDAF7C2
:1002E000880F9695879597F9089597F99F6780E805
:1002F00070E060E008959FEF80EC089500240A9478
:100300001616170618060906089500240A941216F0
:100310001306140605060895092E0394000C11F423
:10032000882352F0BB0F40F4BF2B11F460FF04C0D0
:100330006F5F7F4F8F4F9F4F089557FD9058440F29
:10034000551F59F05F3F71F04795880F97FB991F34
:1003500061F09F3F79F087950895121613061406F1
:10036000551FF2CF4695F1DF08C01616170618067E
:10037000991FF1CF86957105610508940895E89459
:10038000BB2766277727CB0197F908950E94D901EB
:100390000C948C010E947E0138F00E94850120F0AF
:1003A000952311F00C9475010C947B0111240C948D
:1003B000C0010E949D0170F3959FC1F3950F50E01D
:1003C000551F629FF001729FBB27F00DB11D639F07
:1003D000AA27F00DB11DAA1F649F6627B00DA11DAD
:1003E000661F829F2227B00DA11D621F739FB00D53
:1003F000A11D621F839FA00D611D221F749F3327C3
:10040000A00D611D231F849F600D211D822F762F5B
:100410006A2F11249F5750409AF0F1F088234AF038
:10042000EE0FFF1FBB1F661F771F881F91505040A4
:10043000A9F79E3F510580F00C9475010C94C00102
:100440005F3FE4F3983ED4F3869577956795B7952B
:10045000F795E7959F5FC1F7FE2B880F911D969545
:10046000879597F908959F930E943D020F9007FC8E
:10047000EE5F0C9466020C947B010E94A501D8F3F8
:10048000E894E0E0BB279F57F0F02AED3FE049EC0D
:1004900006C0EE0FBB0F661F771F881F28F0B23A09
:1004A00062077307840728F0B25A620B730B840B40
:1004B000E3959A9572F7803830F49A95BB0F661FD2
:1004C000771F881FD2F790480C947C02EF93E0FFCF
:1004D00007C0A2EA2AED3FE049EC5FEB0E94B400BE
:1004E0000E948C010F90039401FC9058E4E5F0E029
:1004F0000C9488029F3F31F0915020F487957795B6
:100500006795B795880F911D9695879597F90895EA
:100510009F938F937F936F93FF93EF939B01AC0116
:100520000E94C601EF91FF910E949C022F913F9182
:100530004F915F910C94C601DF93CF931F930F935C
:10054000FF92EF92DF927B018C01689406C0DA2E55
:10055000EF010E94D901FE01E894A5912591359102
:1005600045915591A6F3EF010E94B400FE01970159
:10057000A801DA9469F7DF90EF90FF900F911F9137
:0A058000CF91DF910895F894FFCFAA
:00000001FF
