:100000000C942A000C9447000C9447000C94470071
:100010000C9447000C9447000C9447000C94470044
:100020000C9447000C9447000C9447000C94E0009B
:100030000C9447000C9447000C9447000C94470024
:100040000C9447000C9447000C9447000C94470014
:100050000C94470011241FBECFE5D8E0DEBFCDBF12
:1000600010E0A0E6B0E0E8EFF5E002C005900D92E8
:10007000AA36B107D9F720E0AAE6B0E001C01D9288
:10008000A037B207E1F70E9409010C94FA020C9420
:10009000000087B93E9A3D9886B1876886B9369A3E
:1000A0003699FECF2FEF80E792E0215080409040BC
:1000B000E1F700C0000024B185B190E0982F8827B7
:1000C000820F911D08958BE683BF80E88CBF81E08D
:1000D00089BF0895BC01990F880B990B0E940102FA
:1000E00020E030E040E85AE30E948D02089520911C
:1000F0006A0030916B00820F931F90936B00809386
:100100006A00209168003091690097FF03C09195C3
:10011000819591092817390720F430936B002093BB
:100120006A0080916A0090916B000895CF92DF92EF
:10013000EF92FF92CF93DF93C0916C00D0916D004E
:10014000C81BD90BBE010D2E000C880B990B0E9409
:100150000102209164003091650040916600509149
:1001600067000E948D026B017C01CE010E94770026
:10017000BC01990F880B990B0E940102209160002D
:100180003091610040916200509163000E948D02A5
:10019000A70196010E945D010E94C9016F3F710590
:1001A00034F4CB0177FF05C080E090E002C08FEF10
:1001B00090E0DF91CF91FF90EF90DF90CF90089586
:1001C0001F920F920FB60F9211242F933F934F93CC
:1001D0005F936F937F938F939F93AF93BF93EF93AF
:1001E000FF9382E090E00E9449000E9496008CBF3D
:1001F000FF91EF91BF91AF919F918F917F916F91FF
:100200005F914F913F912F910F900FBE0F901F90D4
:100210001895BB9A0E946300789407E110E0C2E64B
:10022000D0E080E090E00E944900BC01990F880B6B
:10023000990B0E94010220E030E040E85AE30E945E
:100240008D026093640070936500809366009093C4
:10025000670081E090E00E944900BC01990F880B83
:10026000990B0E94010220E030E040E85AE30E942E
:100270008D026093600070936100809362009093A0
:10028000630010936D0000936C002FEF81EE94E0FB
:10029000215080409040E1F700C00000D0936D00F5
:1002A000C0936C002FE78AE196E021508040904097
:1002B000E1F700C00000B5CF5058BB27AA270E9425
:1002C00074010C9453020E94450238F00E944C02C3
:1002D00020F039F49F3F19F426F40C9442020EF4F6
:1002E000E095E7FB0C943C02E92F0E94640258F36E
:1002F000BA17620773078407950720F079F4A6F50B
:100300000C9486020EF4E0950B2EBA2FA02D0B0153
:10031000B90190010C01CA01A0011124FF27591B4A
:1003200099F0593F50F4503E68F11A16F040A22F50
:10033000232F342F4427585FF3CF469537952795C1
:10034000A795F0405395C9F77EF41F16BA0B620BC0
:10035000730B840BBAF09150A1F0FF0FBB1F661F07
:10036000771F881FC2F70EC0BA0F621F731F841F4A
:1003700048F4879577956795B795F7959E3F08F070
:10038000B0CF9395880F08F09927EE0F9795879532
:1003900008950E94D0016894B1110C9487020895C9
:1003A0000E946C0288F09F5798F0B92F9927B75197
:1003B000B0F0E1F0660F771F881F991F1AF0BA9509
:1003C000C9F714C0B13091F00E948602B1E00895DF
:1003D0000C948602672F782F8827B85F39F0B93FD1
:1003E000CCF3869577956795B395D9F73EF49095BC
:1003F0008095709561957F4F8F4F9F4F0895E8943A
:1004000009C097FB3EF490958095709561957F4F5C
:100410008F4F9F4F9923A9F0F92F96E9BB2793950A
:10042000F695879577956795B795F111F8CFFAF41A
:10043000BB0F11F460FF1BC06F5F7F4F8F4F9F4F4B
:1004400016C0882311F096E911C0772321F09EE8A9
:10045000872F762F05C0662371F096E8862F70E00F
:1004600060E02AF09A95660F771F881FDAF7880FE9
:100470009695879597F9089597F99F6780E870E0BA
:1004800060E008959FEF80EC089500240A9416160A
:10049000170618060906089500240A941216130672
:1004A000140605060895092E0394000C11F4882300
:1004B00052F0BB0F40F4BF2B11F460FF04C06F5F1C
:1004C0007F4F8F4F9F4F089557FD9058440F551FF2
:1004D00059F05F3F71F04795880F97FB991F61F0C6
:1004E0009F3F79F087950895121613061406551F3D
:1004F000F2CF4695F1DF08C0161617061806991FA9
:10050000F1CF86957105610508940895E894BB279D
:1005100066277727CB0197F908950E94A0020C94D3
:1005200053020E94450238F00E944C0220F09523AD
:1005300011F00C943C020C94420211240C9487029A
:100540000E94640270F3959FC1F3950F50E0551F10
:10055000629FF001729FBB27F00DB11D639FAA2718
:10056000F00DB11DAA1F649F6627B00DA11D661F67
:10057000829F2227B00DA11D621F739FB00DA11D88
:10058000621F839FA00D611D221F749F3327A00D42
:10059000611D231F849F600D211D822F762F6A2FDE
:1005A00011249F5750409AF0F1F088234AF0EE0F43
:1005B000FF1FBB1F661F771F881F91505040A9F770
:1005C0009E3F510580F00C943C020C9487025F3FE3
:1005D000E4F3983ED4F3869577956795B795F795AC
:1005E000E7959F5FC1F7FE2B880F911D9695879524
:0805F00097F90895F894FFCF7C
:0A05F8000000803F0000A040D00783
:00000001FF
