:100000000C942A000C9434000C9434000C943400AA
:100010000C9434000C9434000C9434000C94340090
:100020000C9434000C9434000C9434000C94340080
:100030000C9434000C9434000C9434000C94340070
:100040000C9434000C9434000C9434000C94340060
:100050000C94340011241FBECFE5D8E0DEBFCDBF25
:100060000E9442000C9485000C94000089E683BF36
:100070008FE78CBFBB9A089589E685BD8FE783BD66
:100080008F9A08958BB383608BBB82B3806682BBEB
:100090000E9436000E943C0085990CC08CB78A3FB4
:1000A00018F48CB78B5F8CBF8FE493EC0197F1F75A
:1000B00000C0000086990CC08CB7863018F08CB751
:1000C00085508CBF8FE493EC0197F1F700C00000DE
:1000D000C8990CC083B58A3F18F483B58B5F83BD84
:1000E0008FE493EC0197F1F700C00000C999D4CFD9
:1000F00083B5863018F083B5855083BD8FE493ECCB
:0E0100000197F1F700C00000C7CFF894FFCFC1
:00000001FF
